:100000000C9446000C9465000C9465000C946500FB
:100010000C9465000C9465000C9465000C946500CC
:100020000C9465000C9465000C9465000C946500BC
:100030000C9465000C9465000C9465000C946500AC
:100040000C9465000C9465000C9465000C9465009C
:100050000C9465000C9465000C9465000C9465008C
:100060000C9465000C9465000C9465000C9465007C
:100070000C9465000C9465000C9465000C9465006C
:100080000C9465000C9465000C94650011241FBE4F
:10009000CFEFD0E4DEBFCDBF11E0A0E0B1E0E6EDF0
:1000A000F1E000E00BBF02C007900D92A031B10754
:1000B000D9F721E0A0E1B1E001C01D92A231B20761
:1000C000E1F70E94A1000C94E9000C940000CF938A
:1000D000DF9300D01F92CDB7DEB789837B836A831D
:1000E00089818A3031F48A819B81BC018DE00E9434
:1000F000670080EC90E0FC018081882F90E08072A6
:100100009927892BB1F386EC90E02981FC012083AB
:1001100080E090E00F900F900F90DF91CF910895C5
:10012000CF93DF93CDB7DEB78AE790E02AE730E0E0
:10013000F9012081206EFC0120830000DF91CF9126
:100140000895CF93DF93CDB7DEB781E290E0FC0155
:10015000108282E290E02FEFFC01208384E290E0A5
:100160002FEFFC01208385E290E0FC0110828AE2FF
:1001700090E02FEFFC0120838BE290E0FC011082E5
:100180000E94900088E790E0FC018081918190932B
:100190001101809310018FEF8695282F30E0809118
:1001A0001001909111018217930750F085E290E0C1
:1001B00021E0FC0120838BE290E0FC011082E2CF81
:1001C00085E290E0FC0110828BE290E0FC0110825D
:0601D000D9CFF894FFCF27
:1001D6000000000200000000670000000000FF00B1
:00000001FF
