:100000000C9446000C9465000C9465000C946500FB
:100010000C9465000C9465000C9465000C946500CC
:100020000C9465000C9465000C9465000C946500BC
:100030000C9465000C9465000C9465000C946500AC
:100040000C9465000C9465000C9465000C9465009C
:100050000C9465000C9465000C9465000C9465008C
:100060000C9465000C9465000C9465000C9465007C
:100070000C9465000C9465000C9465000C9465006C
:100080000C9465000C9465000C94650011241FBE4F
:10009000CFEFD0E4DEBFCDBF11E0A0E0B1E0E4E7F8
:1000A000F2E000E00BBF02C007900D92A031B10753
:1000B000D9F721E0A0E1B1E001C01D92A231B20761
:1000C000E1F70E94A1000C9438010C940000CF933A
:1000D000DF9300D01F92CDB7DEB789837B836A831D
:1000E00089818A3031F48A819B81BC018DE00E9434
:1000F000670080EC90E0FC018081882F90E08072A6
:100100009927892BB1F386EC90E02981FC012083AB
:1001100080E090E00F900F900F90DF91CF910895C5
:10012000CF93DF93CDB7DEB78AE790E02AE730E0E0
:10013000F9012081206EFC0120830000DF91CF9126
:100140000895CF93DF93CDB7DEB781E290E0FC0155
:10015000108282E290E02FEFFC01208384E290E0A5
:100160002FEFFC01208385E290E0FC0110828AE2FF
:1001700090E02FEFFC0120838BE290E0FC011082E5
:100180000E94900088E790E0FC018081918190932B
:100190001101809310018091100190911101803321
:1001A000934028F085E290E02FEFFC0120838091BE
:1001B0001001909111018A3C924028F085E290E074
:1001C0002FE7FC012083809110019091110184366A
:1001D000924028F085E290E02FE3FC01208380919B
:1001E0001001909111018E3F914028F085E290E03E
:1001F0002FE1FC0120838091100190911101883939
:10020000914028F085E290E02FE0FC01208380916E
:100210001001909111018233914028F085E290E025
:1002200027E0FC01208380911001909111018C3C0A
:10023000910528F085E290E023E0FC012083809185
:100240001001909111018636910528F085E290E029
:1002500021E0FC01208380911001909111018736EB
:10026000910508F48FCF85E290E0FC0110828ACFDF
:04027000F894FFCF30
:100274000000000200000000670000000000FF030F
:00000001FF
